:100000000C942A000C943C000C943C000C943C0092
:100010000C943C000C943C000C943C000C943C0070
:100020000C943C000C943C000C943C000C943C0060
:100030000C94E5040C943C000C943C000C943C00A3
:100040000C943C000C943C000C943C000C943C0040
:100050000C943C0011241FBECFE5D8E0DEBFCDBF1D
:1000600010E0A0E6B0E001C01D92A236B107E1F7B2
:100070000E9412050C944B050C940000DF93CF9363
:1000800000D000D0CDB7DEB789836A838981843000
:1000900090F58981282F30E03C832B838B819C81D4
:1000A00081309105D1F02B813C81223031052CF437
:1000B0008B819C81009761F01EC02B813C81223096
:1000C000310581F08B819C818330910581F013C0D3
:1000D000EAE3F0E08A8180830EC0E7E3F0E08A8102
:1000E000808309C0E4E3F0E08A81808304C0E1E317
:1000F000F0E08A8180830F900F900F900F90CF9146
:10010000DF910895DF93CF9300D000D000D0CDB71A
:10011000DEB789836A838981843008F064C08A816C
:10012000882379F58981282F30E03E832D838D81C6
:100130009E8181309105C9F02D813E8122303105AB
:100140002CF48D819E81009761F04DC02D813E8100
:100150002230310571F08D819E818330910569F0E7
:1001600042C0EBE3F0E010823EC0E8E3F0E0108232
:100170003AC0E5E3F0E0108236C0E2E3F0E010823E
:1001800032C08981282F30E03C832B838B819C8176
:1001900081309105D1F02B813C81223031052CF446
:1001A0008B819C81009761F01EC02B813C812230A5
:1001B000310581F08B819C818330910581F013C0E2
:1001C000EBE3F0E08A8180830EC0E8E3F0E08A810F
:1001D000808309C0E5E3F0E08A81808304C0E2E324
:1001E000F0E08A81808326960FB6F894DEBF0FBEBA
:1001F000CDBFCF91DF910895DF93CF93CDB7DEB719
:1002000027970FB6F894DEBF0FBECDBF89836A83F0
:100210004B838981843008F0EEC08A81883008F0F1
:10022000EAC08B81813009F06FC08981282F30E0CE
:100230003F832E838E819F818130910549F12E81EC
:100240003F81223031052CF48E819F81009761F02F
:10025000D2C02E813F812230310571F18E819F8184
:1002600083309105E9F1C7C0AAE3B0E0EAE3F0E02A
:100270008081482F8A81282F30E081E090E0022E93
:1002800002C0880F991F0A94E2F7842B8C93B3C0A5
:10029000A7E3B0E0E7E3F0E08081482F8A81282FD0
:1002A00030E081E090E0022E02C0880F991F0A948E
:1002B000E2F7842B8C939FC0A4E3B0E0E4E3F0E08A
:1002C0008081482F8A81282F30E081E090E0022E43
:1002D00002C0880F991F0A94E2F7842B8C938BC07D
:1002E000A1E3B0E0E1E3F0E08081482F8A81282F8C
:1002F00030E081E090E0022E02C0880F991F0A943E
:10030000E2F7842B8C9377C08B81882309F073C02C
:100310008981282F30E03D832C838C819D81813021
:10032000910559F12C813D81223031052CF48C81CD
:100330009D81009769F05FC02C813D81223031059D
:1003400089F18C819D818330910509F440C053C0AF
:10035000AAE3B0E0EAE3F0E08081482F8A81282F09
:1003600030E081E090E0022E02C0880F991F0A94CD
:10037000E2F7809584238C933EC0A7E3B0E0E7E3E7
:10038000F0E08081482F8A81282F30E081E090E0E2
:10039000022E02C0880F991F0A94E2F780958423E9
:1003A0008C9329C0A4E3B0E0E4E3F0E08081482F1F
:1003B0008A81282F30E081E090E0022E02C0880F71
:1003C000991F0A94E2F7809584238C9314C0A1E3CB
:1003D000B0E0E1E3F0E08081482F8A81282F30E00F
:1003E00081E090E0022E02C0880F991F0A94E2F784
:1003F000809584238C9327960FB6F894DEBF0FBEAA
:10040000CDBFCF91DF910895DF93CF93CDB7DEB706
:1004100027970FB6F894DEBF0FBECDBF89836A83DE
:100420004B838981843008F0EEC08A81883008F0DF
:10043000EAC08B81813009F06FC08981282F30E0BC
:100440003F832E838E819F818130910549F12E81DA
:100450003F81223031052CF48E819F81009761F01D
:10046000D2C02E813F812230310571F18E819F8172
:1004700083309105E9F1C7C0ABE3B0E0EBE3F0E016
:100480008081482F8A81282F30E081E090E0022E81
:1004900002C0880F991F0A94E2F7842B8C93B3C093
:1004A000A8E3B0E0E8E3F0E08081482F8A81282FBC
:1004B00030E081E090E0022E02C0880F991F0A947C
:1004C000E2F7842B8C939FC0A5E3B0E0E5E3F0E076
:1004D0008081482F8A81282F30E081E090E0022E31
:1004E00002C0880F991F0A94E2F7842B8C938BC06B
:1004F000A2E3B0E0E2E3F0E08081482F8A81282F78
:1005000030E081E090E0022E02C0880F991F0A942B
:10051000E2F7842B8C9377C08B81882309F073C01A
:100520008981282F30E03D832C838C819D8181300F
:10053000910559F12C813D81223031052CF48C81BB
:100540009D81009769F05FC02C813D81223031058B
:1005500089F18C819D818330910509F440C053C09D
:10056000ABE3B0E0EBE3F0E08081482F8A81282FF5
:1005700030E081E090E0022E02C0880F991F0A94BB
:10058000E2F7809584238C933EC0A8E3B0E0E8E3D3
:10059000F0E08081482F8A81282F30E081E090E0D0
:1005A000022E02C0880F991F0A94E2F780958423D7
:1005B0008C9329C0A5E3B0E0E5E3F0E08081482F0B
:1005C0008A81282F30E081E090E0022E02C0880F5F
:1005D000991F0A94E2F7809584238C9314C0A2E3B8
:1005E000B0E0E2E3F0E08081482F8A81282F30E0FC
:1005F00081E090E0022E02C0880F991F0A94E2F772
:10060000809584238C9327960FB6F894DEBF0FBE97
:10061000CDBFCF91DF910895DF93CF9300D000D06D
:1006200000D0CDB7DEB789836A838981843008F032
:1006300070C08A81883008F06CC08981282F30E032
:100640003D832C834C815D814130510549F18C8182
:100650009D818230910534F42C813D812115310535
:1006600061F057C04C815D814230510561F18C8150
:100670009D8183309105D1F14CC0E9E3F0E08081A8
:10068000282F30E08A81882F90E0A90102C055957B
:1006900047958A95E2F7CA01582F51705B833AC09B
:1006A000E6E3F0E08081282F30E08A81882F90E017
:1006B000A90102C0559547958A95E2F7CA01582FBE
:1006C00051705B8327C0E3E3F0E08081282F30E0A6
:1006D0008A81882F90E0A90102C0559547958A9597
:1006E000E2F7CA01582F51705B8314C0E0E3F0E0D9
:1006F0008081282F30E08A81882F90E0A90102C0F4
:10070000559547958A95E2F7CA01582F51705B833A
:1007100001C002C08B818E838E8126960FB6F8941D
:10072000DEBF0FBECDBFCF91DF910895DF93CF9392
:1007300000D00F92CDB7DEB789838981843008F06D
:100740003EC08981282F30E03B832A838A819B81A8
:1007500081309105E9F02A813B81223031052CF46A
:100760008A819B81009761F02AC02A813B812230D7
:100770003105B1F08A819B8183309105C9F01FC09A
:10078000ABE3B0E0EBE3F0E0808180958C9317C0A1
:10079000A8E3B0E0E8E3F0E0808180958C930FC09F
:1007A000A5E3B0E0E5E3F0E0808180958C9307C09D
:1007B000A2E3B0E0E2E3F0E0808180958C930F90BB
:1007C0000F900F90CF91DF910895DF93CF9300D0DA
:1007D00000D0CDB7DEB789836A838981843008F081
:1007E0006EC08981282F30E03C832B838B819C81D4
:1007F0008130910549F12B813C81223031052CF467
:100800008B819C81009761F05AC02B813C81223002
:10081000310571F18B819C8183309105E9F14FC0E5
:10082000ABE3B0E0EBE3F0E08081482F8A81282F32
:1008300030E081E090E0022E02C0880F991F0A94F8
:10084000E2F784278C933BC0A8E3B0E0E8E3F0E054
:100850008081482F8A81282F30E081E090E0022EAD
:1008600002C0880F991F0A94E2F784278C9327C04F
:10087000A5E3B0E0E5E3F0E08081482F8A81282FEE
:1008800030E081E090E0022E02C0880F991F0A94A8
:10089000E2F784278C9313C0A2E3B0E0E2E3F0E038
:1008A0008081482F8A81282F30E081E090E0022E5D
:1008B00002C0880F991F0A94E2F784278C930F9047
:1008C0000F900F900F90CF91DF910895DF93CF930A
:1008D000CDB7DEB7AFE5B0E0EFE5F0E0808180684E
:1008E0008C93CF91DF910895DF93CF93CDB7DEB78F
:1008F000AFE5B0E0EFE5F0E080818F778C93CF91AA
:10090000DF910895DF93CF93CDB7DEB7ADE2B0E0CE
:10091000EDE2F0E0808180648C93ADE2B0E0EDE246
:10092000F0E0808180628C93ADE2B0E0EDE2F0E037
:100930008081877F8C93ADE2B0E0EDE2F0E08081D2
:1009400084608C93ADE2B0E0EDE2F0E080818F7ED8
:100950008C93CF91DF910895DF93CF93CDB7DEB71E
:10096000EEE2F0E08081881F8827881F8130C1F780
:10097000AEE2B0E0EEE2F0E0808180688C93EFE2DE
:10098000F0E08081CF91DF910895DF93CF930F92B4
:10099000CDB7DEB78983EFE2F0E0898180830F90E5
:1009A000CF91DF910895DF93CF9300D0CDB7DEB71D
:1009B0009A83898389819A819093610080936000F2
:1009C0000F900F90CF91DF9108951F920F920FB665
:1009D0000F9211242F933F934F935F936F937F93C5
:1009E0008F939F93AF93BF93EF93FF93DF93CF9337
:1009F000CDB7DEB7E0916000F09161000995CF912D
:100A0000DF91FF91EF91BF91AF919F918F917F9176
:100A10006F915F914F913F912F910F900FBE0F906B
:100A20001F901895DF93CF930F92CDB7DEB78DE36C
:100A300095E00E94D3040E94820480E06FEF0E9440
:100A40003E0081E064E040E00E94FC0081E065E05F
:100A500040E00E94FC0081E066E041E00E94FC0072
:100A600081E067E040E00E94FC000E94AC048983C2
:100A700080E069810E948200F8CFDF93CF93CDB7E9
:100A8000DEB7EFE2F0E0908180E0692F0E94820003
:0A0A9000CF91DF910895F894FFCF95
:00000001FF
