:100000000C942A000C943C000C943C000C943C0092
:100010000C943C000C943C000C943C000C943C0070
:100020000C943C000C943C000C943C000C94F504A3
:100030000C943C000C943C000C943C000C943C0050
:100040000C943C000C943C000C943C000C943C0040
:100050000C943C0011241FBECFE5D8E0DEBFCDBF1D
:1000600010E0A0E6B0E001C01D92A336B107E1F7B1
:100070000E943E000C9401050C940000DF93CF9386
:10008000CDB7DEB780E060E041E00E9428010E9429
:10009000AE0480E590E00E94E3040E949204FFCF4A
:1000A000DF93CF93CDB7DEB7809160008F5F8093F1
:1000B0006000809160008F3151F4E2E5F0E08BE761
:1000C000808380E060E00E94110410926000CF9174
:1000D000DF910895DF93CF9300D000D0CDB7DEB786
:1000E00089836A838981843090F58981282F30E063
:1000F0003C832B838B819C8181309105D1F02B81B6
:100100003C81223031052CF48B819C81009761F079
:100110001EC02B813C812230310581F08B819C8176
:100120008330910581F013C0EAE3F0E08A81808397
:100130000EC0E7E3F0E08A81808309C0E4E3F0E0E9
:100140008A81808304C0E1E3F0E08A8180830F909C
:100150000F900F900F90CF91DF910895DF93CF9381
:1001600000D000D000D0CDB7DEB789836A83898103
:10017000843008F064C08A81882379F58981282F2A
:1001800030E03E832D838D819E8181309105C9F0C1
:100190002D813E81223031052CF48D819E81009786
:1001A00061F04DC02D813E812230310571F08D818D
:1001B0009E818330910569F042C0EBE3F0E010824C
:1001C0003EC0E8E3F0E010823AC0E5E3F0E01082E0
:1001D00036C0E2E3F0E0108232C08981282F30E09F
:1001E0003C832B838B819C8181309105D1F02B81C5
:1001F0003C81223031052CF48B819C81009761F089
:100200001EC02B813C812230310581F08B819C8185
:100210008330910581F013C0EBE3F0E08A818083A5
:100220000EC0E8E3F0E08A81808309C0E5E3F0E0F6
:100230008A81808304C0E2E3F0E08A81808326968D
:100240000FB6F894DEBF0FBECDBFCF91DF910895FA
:10025000DF93CF93CDB7DEB727970FB6F894DEBF05
:100260000FBECDBF89836A834B838981843008F0B8
:10027000EEC08A81883008F0EAC08B81813009F0B5
:100280006FC08981282F30E03F832E838E819F812C
:100290008130910549F12E813F81223031052CF4C6
:1002A0008E819F81009761F0D2C02E813F812230E4
:1002B000310571F18E819F8183309105E9F1C7C0CD
:1002C000AAE3B0E0EAE3F0E08081482F8A81282F9A
:1002D00030E081E090E0022E02C0880F991F0A945E
:1002E000E2F7842B8C93B3C0A7E3B0E0E7E3F0E040
:1002F0008081482F8A81282F30E081E090E0022E13
:1003000002C0880F991F0A94E2F7842B8C939FC038
:10031000A4E3B0E0E4E3F0E08081482F8A81282F55
:1003200030E081E090E0022E02C0880F991F0A940D
:10033000E2F7842B8C938BC0A1E3B0E0E1E3F0E023
:100340008081482F8A81282F30E081E090E0022EC2
:1003500002C0880F991F0A94E2F7842B8C9377C010
:100360008B81882309F073C08981282F30E03D8379
:100370002C838C819D818130910559F12C813D81A7
:10038000223031052CF48C819D81009769F05FC08B
:100390002C813D812230310589F18C819D81833012
:1003A000910509F440C053C0AAE3B0E0EAE3F0E0ED
:1003B0008081482F8A81282F30E081E090E0022E52
:1003C00002C0880F991F0A94E2F7809584238C93CA
:1003D0003EC0A7E3B0E0E7E3F0E08081482F8A81E8
:1003E000282F30E081E090E0022E02C0880F991F94
:1003F0000A94E2F7809584238C9329C0A4E3B0E0AB
:10040000E4E3F0E08081482F8A81282F30E081E00A
:1004100090E0022E02C0880F991F0A94E2F780959F
:1004200084238C9314C0A1E3B0E0E1E3F0E0808189
:10043000482F8A81282F30E081E090E0022E02C010
:10044000880F991F0A94E2F7809584238C9327964E
:100450000FB6F894DEBF0FBECDBFCF91DF910895E8
:10046000DF93CF93CDB7DEB727970FB6F894DEBFF3
:100470000FBECDBF89836A834B838981843008F0A6
:10048000EEC08A81883008F0EAC08B81813009F0A3
:100490006FC08981282F30E03F832E838E819F811A
:1004A0008130910549F12E813F81223031052CF4B4
:1004B0008E819F81009761F0D2C02E813F812230D2
:1004C000310571F18E819F8183309105E9F1C7C0BB
:1004D000ABE3B0E0EBE3F0E08081482F8A81282F86
:1004E00030E081E090E0022E02C0880F991F0A944C
:1004F000E2F7842B8C93B3C0A8E3B0E0E8E3F0E02C
:100500008081482F8A81282F30E081E090E0022E00
:1005100002C0880F991F0A94E2F7842B8C939FC026
:10052000A5E3B0E0E5E3F0E08081482F8A81282F41
:1005300030E081E090E0022E02C0880F991F0A94FB
:10054000E2F7842B8C938BC0A2E3B0E0E2E3F0E00F
:100550008081482F8A81282F30E081E090E0022EB0
:1005600002C0880F991F0A94E2F7842B8C9377C0FE
:100570008B81882309F073C08981282F30E03D8367
:100580002C838C819D818130910559F12C813D8195
:10059000223031052CF48C819D81009769F05FC079
:1005A0002C813D812230310589F18C819D81833000
:1005B000910509F440C053C0ABE3B0E0EBE3F0E0D9
:1005C0008081482F8A81282F30E081E090E0022E40
:1005D00002C0880F991F0A94E2F7809584238C93B8
:1005E0003EC0A8E3B0E0E8E3F0E08081482F8A81D4
:1005F000282F30E081E090E0022E02C0880F991F82
:100600000A94E2F7809584238C9329C0A5E3B0E097
:10061000E5E3F0E08081482F8A81282F30E081E0F7
:1006200090E0022E02C0880F991F0A94E2F780958D
:1006300084238C9314C0A2E3B0E0E2E3F0E0808175
:10064000482F8A81282F30E081E090E0022E02C0FE
:10065000880F991F0A94E2F7809584238C9327963C
:100660000FB6F894DEBF0FBECDBFCF91DF910895D6
:10067000DF93CF9300D000D000D0CDB7DEB7898311
:100680006A838981843008F070C08A81883008F0DC
:100690006CC08981282F30E03D832C834C815D81A3
:1006A0004130510549F18C819D818230910534F4AE
:1006B0002C813D812115310561F057C04C815D8150
:1006C0004230510561F18C819D8183309105D1F1DA
:1006D0004CC0E9E3F0E08081282F30E08A81882F48
:1006E00090E0A90102C0559547958A95E2F7CA01A5
:1006F000582F51705B833AC0E6E3F0E08081282FE9
:1007000030E08A81882F90E0A90102C05595479575
:100710008A95E2F7CA01582F51705B8327C0E3E343
:10072000F0E08081282F30E08A81882F90E0A901B5
:1007300002C0559547958A95E2F7CA01582F517026
:100740005B8314C0E0E3F0E08081282F30E08A81F1
:10075000882F90E0A90102C0559547958A95E2F748
:10076000CA01582F51705B8301C002C08B818E83F8
:100770008E8126960FB6F894DEBF0FBECDBFCF9107
:10078000DF910895DF93CF9300D00F92CDB7DEB7FE
:1007900089838981843008F03EC08981282F30E028
:1007A0003B832A838A819B8181309105E9F02A81EC
:1007B0003B81223031052CF48A819B81009761F0C6
:1007C0002AC02A813B8122303105B1F08A819B8188
:1007D00083309105C9F01FC0ABE3B0E0EBE3F0E07C
:1007E000808180958C9317C0A8E3B0E0E8E3F0E047
:1007F000808180958C930FC0A5E3B0E0E5E3F0E045
:10080000808180958C9307C0A2E3B0E0E2E3F0E042
:10081000808180958C930F900F900F90CF91DF91F6
:100820000895DF93CF9300D000D0CDB7DEB7898392
:100830006A838981843008F06EC08981282F30E076
:100840003C832B838B819C818130910549F12B81E5
:100850003C81223031052CF48B819C81009761F022
:100860005AC02B813C812230310571F18B819C81F2
:1008700083309105E9F14FC0ABE3B0E0EBE3F0E08A
:100880008081482F8A81282F30E081E090E0022E7D
:1008900002C0880F991F0A94E2F784278C933BC00B
:1008A000A8E3B0E0E8E3F0E08081482F8A81282FB8
:1008B00030E081E090E0022E02C0880F991F0A9478
:1008C000E2F784278C9327C0A5E3B0E0E5E3F0E0EE
:1008D0008081482F8A81282F30E081E090E0022E2D
:1008E00002C0880F991F0A94E2F784278C9313C0E3
:1008F000A2E3B0E0E2E3F0E08081482F8A81282F74
:1009000030E081E090E0022E02C0880F991F0A9427
:10091000E2F784278C930F900F900F900F90CF9158
:10092000DF910895DF93CF93CDB7DEB7AFE5B0E0A9
:10093000EFE5F0E0808180688C93CF91DF9108959E
:10094000DF93CF93CDB7DEB7AFE5B0E0EFE5F0E0F2
:1009500080818F778C93CF91DF910895DF93CF9330
:10096000CDB7DEB7E2E5F0E08BE78083A3E5B0E04A
:10097000E3E5F0E08081877F8C93A3E5B0E0E3E5D9
:10098000F0E080818F7B8C93A9E5B0E0E9E5F0E0B1
:10099000808181608C93A3E5B0E0E3E5F0E08081A5
:1009A00081608C93A3E5B0E0E3E5F0E080818D7F8A
:1009B0008C93A3E5B0E0E3E5F0E0808184608C9364
:1009C000CF91DF910895DF93CF9300D0CDB7DEB7FD
:1009D0009A83898389819A819093620080936100D0
:1009E0000F900F90CF91DF910895DF93CF93CDB704
:1009F000DEB7E0916100F09162000995CF91DF913F
:060A00000895F894FFCFF9
:00000001FF
