:100000000C942A000C943F000C943F000C943F0089
:100010000C943F000C943F000C943F000C943F0064
:100020000C943F000C943F000C943F000C94530739
:100030000C943F000C943F000C943F000C943F0044
:100040000C943F000C943F000C943F000C943F0034
:100050000C943F0011241FBECFE5D8E0DEBFCDBF1A
:1000600011E0A0E6B0E0E4E6FEE102C005900D92EA
:10007000A836B107D9F70E943D070C94300F0C94B5
:100080000000EF92FF920F931F937B018C0120E001
:1000900030E040E05FE40E94ED0388238CF0C8016B
:1000A000B70120E030E040E05FE40E94B9010E9427
:1000B0007B049B01AC01205030404040504806C0BA
:1000C000C801B7010E947B049B01AC01B901CA01C0
:1000D0001F910F91FF90EF900895A0E0B0E0E3E74B
:1000E000F0E00C94F90EDC012B01FA019C919230A6
:1000F00008F439C1EB018881823008F433C19430AF
:1001000069F4843009F02FC111969C91119789816F
:10011000981709F428C1A0E6B0E025C1843009F49D
:1001200021C18230A9F4923009F01DC19A01AD01BC
:1001300088E0EA010990AE01E90109929E0181502F
:10014000C1F7E201898111969C918923818308C1BD
:10015000923009F407C112962D903C901397EB0151
:100160008A819B811496AD90BD90CD90DC901797BD
:10017000EC80FD800E811F819101281B390BB90194
:1001800037FF04C066277727621B730B6032710547
:100190000CF061C0121613066CF537014801062EEB
:1001A00004C096948794779467940A94D2F721E0D8
:1001B00030E040E050E004C0220F331F441F551FC1
:1001C0006A95D2F721503040404050402E213F21C7
:1001D00040235123211531054105510521F021E02E
:1001E00030E040E050E079018A01E628F72808294C
:1001F00019293CC0232BD1F1260E371E35014601AB
:10020000062E04C096948794779467940A94D2F744
:1002100021E030E040E050E004C0220F331F441FD3
:10022000551F6A95D2F721503040404050402A2156
:100230003B214C215D21211531054105510521F05E
:1002400021E030E040E050E059016A01A628B728DB
:10025000C828D9280BC0821593052CF01C01AA24AC
:10026000BB24650103C0EE24FF24870111969C91F5
:10027000D20111968C91981709F445C0992339F051
:10028000A80197012A193B094C095D0906C0A6017E
:1002900095012E193F09400B510B57FD08C01182E3
:1002A0003382228224833583468357831DC081E0B5
:1002B00081833382228288279927DC01821B930B5A
:1002C000A40BB50B84839583A683B7830DC0220F3F
:1002D000331F441F551F24833583468357838281F0
:1002E000938101979383828324813581468157814D
:1002F000DA01C9010197A109B1098F5F9F4FAF4F83
:10030000BF4328F30BC0918333822282EA0CFB1C8B
:100310000C1D1D1DE482F5820683178383E0808314
:10032000248135814681578157FF1AC0C901AA2708
:1003300097FDA095BA2F81709070A070B0705695FF
:10034000479537952795822B932BA42BB52B848328
:100350009583A683B7838281938101969383828359
:10036000DF0101C0D201CD01CDB7DEB7E2E10C94CF
:10037000150FA0E2B0E0EFEBF1E00C94050F6983FC
:100380007A838B839C832D833E834F835887E9E058
:10039000EE2EF12CEC0EFD1ECE010196B7010E944F
:1003A0006C068E010F5E1F4FCE010596B8010E94AC
:1003B0006C068A8991E089278A8BC701B801AE0152
:1003C000475E5F4F0E946D000E949705A096E6E091
:1003D0000C94210FA0E2B0E0E0EFF1E00C94050FE7
:1003E00069837A838B839C832D833E834F835887D5
:1003F000F9E0EF2EF12CEC0EFD1ECE010196B701B7
:100400000E946C068E010F5E1F4FCE010596B8014B
:100410000E946C06C701B801AE01475E5F4F0E94A3
:100420006D000E949705A096E6E00C94210FA0E2D3
:10043000B0E0EDE1F2E00C94F90E69837A838B83EE
:100440009C832D833E834F835887CE010196BE0146
:10045000675F7F4F0E946C06CE010596BE016F5EFE
:100460007F4F0E946C069985923088F0898982308E
:10047000C8F0943019F4823051F404C0843029F467
:10048000923081F480E690E0C6C0923049F420E0DA
:100490009A858A89981321E02A87CE010996BBC0E4
:1004A000823049F420E09A858A89981321E02A8BCA
:1004B000CE014196B0C02D843E844F8458886D880B
:1004C0007E888F88988CEE24FF248701AA24BB2481
:1004D000650140E050E060E070E0E0E0F0E0C10184
:1004E00081709070892BE9F0E60CF71C081D191D2E
:1004F0009A01AB012A0D3B1D4C1D5D1D80E090E073
:10050000A0E0B0E0E614F7040805190520F481E046
:1005100090E0A0E0B0E0BA01A901480F591F6A1F9E
:100520007B1FAA0CBB1CCC1CDD1C97FE08C081E005
:1005300090E0A0E0B0E0A82AB92ACA2ADB2A3196C6
:10054000E032F10549F0660C771C881C991C569422
:10055000479437942794C3CFFA85EA892B893C893D
:100560008B859C85280F391F2E5F3F4F17C0CA010E
:1005700081709070892B61F016950795F794E79438
:1005800080E090E0A0E0B0E8E82AF92A0A2B1B2BD3
:1005900076956795579547952F5F3F4F77FDE7CF46
:1005A0000CC0440F551F661F771F17FD4160EE0CEE
:1005B000FF1C001F111F21503040403090E05907B0
:1005C00090E0690790E4790760F32B8F3C8FDB01A3
:1005D000CA018F779070A070B07080349105A1052A
:1005E000B10561F447FD0AC0E114F10401051105EC
:1005F00029F0405C5F4F6F4F7F4F40781A8EFE1797
:1006000011F081E08A8F4D8F5E8F6F8F78A383E02A
:10061000898FCE0149960E949705A096E2E10C943D
:10062000150FA8E1B0E0E7E1F3E00C94010F698356
:100630007A838B839C832D833E834F835887B9E0D5
:10064000EB2EF12CEC0EFD1ECE010196B7010E949F
:100650006C068E010F5E1F4FCE010596B8010E94F9
:100660006C062985223008F47EC03989323010F4B6
:10067000B8017CC08A859A8989278A87243011F03D
:10068000223031F4231709F06EC060E670E06EC0CE
:10069000343039F41D861E861F86188A1C861B86F8
:1006A00004C0323021F484E08987B7015FC02B8514
:1006B0003C858B899C89281B390B3C872B87ED84D3
:1006C000FE840F851889AD88BE88CF88D88CEA143F
:1006D000FB040C051D0540F4EE0CFF1C001F111F50
:1006E000215030403C872B8720E030E040E050E054
:1006F00080E090E0A0E0B0E460E070E0EA14FB0489
:100700000C051D0540F0282B392B4A2B5B2BEA18D2
:10071000FB080C091D09B695A79597958795EE0CD2
:10072000FF1C001F111F6F5F7F4F6F31710531F785
:10073000DA01C9018F779070A070B0708034910594
:10074000A105B10561F427FD0AC0E114F10401051A
:10075000110529F0205C3F4F4F4F5F4F20782D87C8
:100760003E874F87588BBE01675F7F4FCB010E944A
:1007700097056896EAE00C941D0FA8E1B0E0E3EC61
:10078000F3E00C94050F69837A838B839C832D831C
:100790003E834F83588789E0E82EF12CEC0EFD1E36
:1007A000CE010196B7010E946C068E010F5E1F4FAD
:1007B000CE010596B8010E946C068985823040F012
:1007C0008989823028F0C701B8010E94E40601C07F
:1007D00081E06896E6E00C94210FA8E1B0E0E3EF39
:1007E000F3E00C94050F69837A838B839C832D83BC
:1007F0003E834F83588789E0E82EF12CEC0EFD1ED6
:10080000CE010196B7010E946C068E010F5E1F4F4C
:10081000CE010596B8010E946C068985823040F0B1
:100820008989823028F0C701B8010E94E40601C01E
:100830008FEF6896E6E00C94210FA8E0B0E0E3E2C9
:10084000F4E00C94020F9B01AC0183E08983DA0190
:10085000C9018827B7FD83959927AA27BB27B82EFA
:10086000211531054105510519F482E089833AC00B
:100870008823A9F0203080E0380780E0480780E82E
:10088000580729F460E070E080E09FEC30C0EE246F
:10089000FF248701E21AF30A040B150B02C0790149
:1008A0008A018EE1C82ED12CDC82CB82ED82FE82C1
:1008B0000F831887C801B7010E94480501971816D1
:1008C000190684F4082E04C0EE0CFF1C001F111F33
:1008D0000A94D2F7ED82FE820F831887C81AD90ACC
:1008E000DC82CB82BA82CE0101960E9497052896BF
:1008F000E9E00C941E0FACE0B0E0E1E8F4E00C9409
:10090000090F69837A838B839C83CE010196BE0194
:100910006B5F7F4F0E946C068D81823061F1823067
:1009200050F1843021F48E81882351F12EC02F8123
:10093000388537FD20C06E812F3131051CF06623CC
:10094000F9F023C08EE190E0821B930B29853A8554
:100950004B855C8504C056954795379527958A95B4
:10096000D2F76623B1F050954095309521953F4FD1
:100970004F4F5F4F0EC020E030E040E050E009C034
:100980002FEF3FEF4FEF5FE704C020E030E040E0A3
:1009900050E8B901CA012C96E2E00C94250FA8E0BA
:1009A000B0E0E5EDF4E00C94010F7B018C016115E2
:1009B00071058105910519F482E0898360C083E0A7
:1009C00089838EE1C82ED12CDC82CB82ED82FE821F
:1009D0000F831887C801B7010E944805FC013197B1
:1009E000F7FF3BC0222733272E1B3F0B570168011F
:1009F000022E04C0D694C794B794A7940A94D2F751
:100A000040E050E060E070E081E090E0A0E0B0E025
:100A100004C0880F991FAA1FBB1F2A95D2F7019700
:100A2000A109B1098E219F21A023B1230097A1051F
:100A3000B10521F041E050E060E070E04A295B2917
:100A40006C297D294D835E836F8378878EE190E0EA
:100A50008E1B9F0B9C838B8312C0309781F00E2ED0
:100A600004C0EE0CFF1C001F111F0A94D2F7ED8288
:100A7000FE820F831887CE1ADF0ADC82CB821A82AD
:100A8000CE0101960E9497052896EAE00C941D0F6E
:100A9000EF92FF920F931F937B018C0180E0E81689
:100AA00080E0F80681E0080780E0180788F48FEFFF
:100AB000E816F1040105110531F028F088E090E016
:100AC000A0E0B0E017C080E090E0A0E0B0E012C08D
:100AD00080E0E81680E0F80680E0080781E018076B
:100AE00028F088E190E0A0E0B0E004C080E190E070
:100AF000A0E0B0E020E230E040E050E0281B390BFD
:100B00004A0B5B0B04C016950795F794E7948A95FA
:100B1000D2F7F701E859FF4F8081281B31094109BD
:100B20005109C9011F910F91FF90EF900895DF9235
:100B3000EF92FF920F931F93FC01E480F5800681F2
:100B40001781D1808081823048F480E090E0A0E17C
:100B5000B0E0E82AF92A0A2B1B2BA5C0843009F43F
:100B60009FC0823021F4EE24FF24870105C0E114E8
:100B7000F1040105110519F4E0E0F0E096C062818E
:100B800073819FEF623879070CF05BC022E83FEF7A
:100B9000261B370B2A3131052CF020E030E040E0F5
:100BA00050E02AC0B801A701022E04C076956795CF
:100BB000579547950A94D2F781E090E0A0E0B0E025
:100BC00004C0880F991FAA1FBB1F2A95D2F701974F
:100BD000A109B1098E219F21A023B1230097A1056E
:100BE000B10521F081E090E0A0E0B0E09A01AB0116
:100BF000282B392B4A2B5B2BDA01C9018F77907098
:100C0000A070B07080349105A105B10539F427FFBB
:100C100009C0205C3F4F4F4F5F4F04C0215C3F4FE6
:100C20004F4F5F4FE0E0F0E02030A0E03A07A0E057
:100C30004A07A0E45A0710F0E1E0F0E079018A01E8
:100C400027C06038710564F5FB01E158FF4FD801FA
:100C5000C7018F779070A070B07080349105A105A6
:100C6000B10539F4E7FE0DC080E490E0A0E0B0E00B
:100C700004C08FE390E0A0E0B0E0E80EF91E0A1F88
:100C80001B1F17FF05C016950795F794E79431963B
:100C900087E016950795F794E7948A95D1F705C0F4
:100CA000EE24FF248701EFEFF0E06E2F67956627B3
:100CB0006795902F9F77D794DD24D7948E2F8695B4
:100CC000492F462B582F5D29B701CA011F910F915B
:100CD000FF90EF90DF900895FC01DB01408151818E
:100CE0002281622F6F7770E0221F2227221F9381BB
:100CF000892F880F822B282F30E0991F9927991F61
:100D000011969C93119721153105A9F541155105AF
:100D10006105710511F482E037C082E89FEF1396F8
:100D20009C938E9312979A01AB0167E0220F331FB9
:100D3000441F551F6A95D1F783E08C930DC0220F95
:100D4000331F441F551F12968D919C911397019745
:100D500013969C938E931297203080E0380780E0A2
:100D6000480780E4580758F314962D933D934D930C
:100D70005C93179708952F3F310579F4411551057C
:100D80006105710519F484E08C93089564FF03C034
:100D900081E08C9312C01C9210C02F5730401396E4
:100DA0003C932E93129783E08C9387E0440F551F5A
:100DB000661F771F8A95D1F7706414964D935D93E3
:100DC0006D937C93179708951F93DC01FB019C9111
:100DD000923008F447C08081823008F443C09430D8
:100DE00051F411961C91843099F58181682F70E03F
:100DF000611B71093FC0843021F0923031F48230A0
:100E0000B9F18181882389F12DC011961C91119728
:100E10008230F1F081811817D9F412962D913C910E
:100E20001397828193818217930794F028173907CB
:100E3000BCF014968D919D910D90BC91A02D2481B4
:100E4000358146815781281739074A075B0718F40F
:100E5000112341F00AC082179307A407B50740F495
:100E6000112319F061E070E005C06FEF7FEF02C061
:100E700060E070E0CB011F910895DF93CF93CDB771
:100E8000DEB781E063E041E00E94210882E063E098
:100E900044E60E94A70B81E00E940E0D80E090E0E6
:100EA000CF91DF9108951F920F920FB60F921124E8
:100EB000DF93CF93CDB7DEB7CF91DF910F900FBE09
:100EC0000F901F901895DF93CF9300D000D0CDB72F
:100ED000DEB789836A838981843090F58981282FE0
:100EE00030E03C832B838B819C8181309105D1F054
:100EF0002B813C81223031052CF48B819C81009721
:100F000061F01EC02B813C812230310581F08B8144
:100F10009C818330910581F013C0EAE3F0E08A817F
:100F200080830EC0E7E3F0E08A81808309C0E4E3B8
:100F3000F0E08A81808304C0E1E3F0E08A8180836D
:100F40000F900F900F900F90CF91DF910895DF9346
:100F5000CF9300D000D000D0CDB7DEB789836A83AD
:100F60008981843008F064C08A81882379F5898179
:100F7000282F30E03E832D838D819E818130910525
:100F8000C9F02D813E81223031052CF48D819E8166
:100F9000009761F04DC02D813E812230310571F006
:100FA0008D819E818330910569F042C0EBE3F0E0D2
:100FB00010823EC0E8E3F0E010823AC0E5E3F0E0E2
:100FC000108236C0E2E3F0E0108232C08981282F1F
:100FD00030E03C832B838B819C8181309105D1F063
:100FE0002B813C81223031052CF48B819C81009730
:100FF00061F01EC02B813C812230310581F08B8154
:101000009C818330910581F013C0EBE3F0E08A818D
:1010100080830EC0E8E3F0E08A81808309C0E5E3C5
:10102000F0E08A81808304C0E2E3F0E08A8180837B
:1010300026960FB6F894DEBF0FBECDBFCF91DF91DD
:101040000895DF93CF93CDB7DEB727970FB6F89407
:10105000DEBF0FBECDBF89836A834B838981843015
:1010600008F0EEC08A81883008F0EAC08B818130B8
:1010700009F06FC08981282F30E03F832E838E8155
:101080009F818130910549F12E813F8122303105C8
:101090002CF48E819F81009761F0D2C02E813F8118
:1010A0002230310571F18E819F8183309105E9F104
:1010B000C7C0AAE3B0E0EAE3F0E08081482F8A816C
:1010C000282F30E081E090E0022E02C0880F991FA7
:1010D0000A94E2F7842B8C93B3C0A7E3B0E0E7E374
:1010E000F0E08081482F8A81282F30E081E090E075
:1010F000022E02C0880F991F0A94E2F7842B8C936A
:101100009FC0A4E3B0E0E4E3F0E08081482F8A814F
:10111000282F30E081E090E0022E02C0880F991F56
:101120000A94E2F7842B8C938BC0A1E3B0E0E1E357
:10113000F0E08081482F8A81282F30E081E090E024
:10114000022E02C0880F991F0A94E2F7842B8C9319
:1011500077C08B81882309F073C08981282F30E004
:101160003D832C838C819D818130910559F12C81A7
:101170003D81223031052CF48C819D81009769F0EE
:101180005FC02C813D812230310589F18C819D81A8
:101190008330910509F440C053C0AAE3B0E0EAE30C
:1011A000F0E08081482F8A81282F30E081E090E0B4
:1011B000022E02C0880F991F0A94E2F780958423BB
:1011C0008C933EC0A7E3B0E0E7E3F0E08081482FD6
:1011D0008A81282F30E081E090E0022E02C0880F43
:1011E000991F0A94E2F7809584238C9329C0A4E385
:1011F000B0E0E4E3F0E08081482F8A81282F30E0DE
:1012000081E090E0022E02C0880F991F0A94E2F755
:10121000809584238C9314C0A1E3B0E0E1E3F0E077
:101220008081482F8A81282F30E081E090E0022ED3
:1012300002C0880F991F0A94E2F7809584238C934B
:1012400027960FB6F894DEBF0FBECDBFCF91DF91CA
:101250000895DF93CF93CDB7DEB727970FB6F894F5
:10126000DEBF0FBECDBF89836A834B838981843003
:1012700008F0EEC08A81883008F0EAC08B818130A6
:1012800009F06FC08981282F30E03F832E838E8143
:101290009F818130910549F12E813F8122303105B6
:1012A0002CF48E819F81009761F0D2C02E813F8106
:1012B0002230310571F18E819F8183309105E9F1F2
:1012C000C7C0ABE3B0E0EBE3F0E08081482F8A8158
:1012D000282F30E081E090E0022E02C0880F991F95
:1012E0000A94E2F7842B8C93B3C0A8E3B0E0E8E360
:1012F000F0E08081482F8A81282F30E081E090E063
:10130000022E02C0880F991F0A94E2F7842B8C9357
:101310009FC0A5E3B0E0E5E3F0E08081482F8A813B
:10132000282F30E081E090E0022E02C0880F991F44
:101330000A94E2F7842B8C938BC0A2E3B0E0E2E343
:10134000F0E08081482F8A81282F30E081E090E012
:10135000022E02C0880F991F0A94E2F7842B8C9307
:1013600077C08B81882309F073C08981282F30E0F2
:101370003D832C838C819D818130910559F12C8195
:101380003D81223031052CF48C819D81009769F0DC
:101390005FC02C813D812230310589F18C819D8196
:1013A0008330910509F440C053C0ABE3B0E0EBE3F8
:1013B000F0E08081482F8A81282F30E081E090E0A2
:1013C000022E02C0880F991F0A94E2F780958423A9
:1013D0008C933EC0A8E3B0E0E8E3F0E08081482FC2
:1013E0008A81282F30E081E090E0022E02C0880F31
:1013F000991F0A94E2F7809584238C9329C0A5E372
:10140000B0E0E5E3F0E08081482F8A81282F30E0CA
:1014100081E090E0022E02C0880F991F0A94E2F743
:10142000809584238C9314C0A2E3B0E0E2E3F0E063
:101430008081482F8A81282F30E081E090E0022EC1
:1014400002C0880F991F0A94E2F7809584238C9339
:1014500027960FB6F894DEBF0FBECDBFCF91DF91B8
:101460000895DF93CF9300D000D000D0CDB7DEB782
:1014700089836A838981843008F070C08A818830CA
:1014800008F06CC08981282F30E03D832C834C818B
:101490005D814130510549F18C819D8182309105FA
:1014A00034F42C813D812115310561F057C04C8108
:1014B0005D814230510561F18C819D8183309105C0
:1014C000D1F14CC0E9E3F0E08081282F30E08A813F
:1014D000882F90E0A90102C0559547958A95E2F7BB
:1014E000CA01582F51705B833AC0E6E3F0E0808177
:1014F000282F30E08A81882F90E0A90102C05595FD
:1015000047958A95E2F7CA01582F51705B8327C02F
:10151000E3E3F0E08081282F30E08A81882F90E09B
:10152000A90102C0559547958A95E2F7CA01582F3F
:1015300051705B8314C0E0E3F0E08081282F30E03D
:101540008A81882F90E0A90102C0559547958A9518
:10155000E2F7CA01582F51705B8301C002C08B8132
:101560008E838E8126960FB6F894DEBF0FBECDBF58
:10157000CF91DF910895DF93CF9300D00F92CDB735
:10158000DEB789838981843008F03EC08981282FA5
:1015900030E03B832A838A819B8181309105E9F089
:1015A0002A813B81223031052CF48A819B8100976E
:1015B00061F02AC02A813B8122303105B1F08A8155
:1015C0009B8183309105C9F01FC0ABE3B0E0EBE332
:1015D000F0E0808180958C9317C0A8E3B0E0E8E349
:1015E000F0E0808180958C930FC0A5E3B0E0E5E347
:1015F000F0E0808180958C9307C0A2E3B0E0E2E345
:10160000F0E0808180958C930F900F900F90CF9198
:10161000DF910895DF93CF9300D000D0CDB7DEB730
:1016200089836A838981843008F06EC08981282F7C
:1016300030E03C832B838B819C818130910549F183
:101640002B813C81223031052CF48B819C810097C9
:1016500061F05AC02B813C812230310571F18B81C0
:101660009C8183309105E9F14FC0ABE3B0E0EBE33F
:10167000F0E08081482F8A81282F30E081E090E0DF
:10168000022E02C0880F991F0A94E2F784278C93D8
:101690003BC0A8E3B0E0E8E3F0E08081482F8A8116
:1016A000282F30E081E090E0022E02C0880F991FC1
:1016B0000A94E2F784278C9327C0A5E3B0E0E5E322
:1016C000F0E08081482F8A81282F30E081E090E08F
:1016D000022E02C0880F991F0A94E2F784278C9388
:1016E00013C0A2E3B0E0E2E3F0E08081482F8A81FA
:1016F000282F30E081E090E0022E02C0880F991F71
:101700000A94E2F784278C930F900F900F900F901C
:10171000CF91DF910895DF93CF93CDB7DEB7AFE5DB
:10172000B0E0EFE5F0E0808180688C93CF91DF91AD
:101730000895DF93CF93CDB7DEB7AFE5B0E0EFE527
:10174000F0E080818F778C93CF91DF9108950F9394
:101750001F93DF93CF93CDB7DEB728970FB6F894DA
:10176000DEBF0FBECDBF8A836B834C838A818330FB
:1017700008F096C08A81282F30E038872F838F8128
:1017800098858130910509F448C0EF81F885E230F1
:10179000F10534F42F8138852115310571F080C0B1
:1017A0008F8198858230910509F44EC0EF81F885CC
:1017B000E330F10509F462C073C08B81282F30E05B
:1017C00040E050E080E092E1AAE7B0E0BC01CD014A
:1017D0000E94D70EDA01C901BC01CD010E94CF04DD
:1017E000DC01CB01BC01CD014C810E94810D8983BC
:1017F000E2E5F0E089818083A3E5B0E0E3E5F0E095
:101800008081877F8C93A3E5B0E0E3E5F0E0808101
:101810008F7B8C930E94610D43C0A3E5B0E0E3E5AC
:10182000F0E0808188608C93A3E5B0E0E3E5F0E030
:1018300080818F7B8C930E94710DECE5F0E08C81B0
:1018400080830E94470D2CC0A3E5B0E0E3E5F0E003
:10185000808180648C93A3E5B0E0E3E5F0E08081D3
:10186000877F8C930CE510E060E070E284EF95E4F4
:101870004C810E94D70CF801808312C0ECE5F0E0A7
:101880008C818083A3E5B0E0E3E5F0E080818064B3
:101890008C93A3E5B0E0E3E5F0E0808188608C9371
:1018A0008B81843008F078C08B81282F30E03E8314
:1018B0002D838D819E818130910569F1ED81FE81BD
:1018C000E230F10534F42D813E812115310569F0B6
:1018D00063C08D819E818230910599F1ED81FE81F9
:1018E000E330F10509F443C057C0A3E5B0E0E3E5F8
:1018F000F0E080818E7F8C93A3E5B0E0E3E5F0E03B
:10190000808182608C93A3E5B0E0E3E5F0E0808124
:101910008B7F8C9341C0A3E5B0E0E3E5F0E08081EC
:1019200081608C93A3E5B0E0E3E5F0E08081826024
:101930008C93A3E5B0E0E3E5F0E080818B7F8C93AE
:101940002BC0A3E5B0E0E3E5F0E080818E7F8C93CF
:10195000A3E5B0E0E3E5F0E080818D7F8C93A3E523
:10196000B0E0E3E5F0E0808184608C9315C0A3E5EE
:10197000B0E0E3E5F0E0808181608C93A3E5B0E026
:10198000E3E5F0E080818D7F8C93A3E5B0E0E3E5B3
:10199000F0E0808184608C9328960FB6F894DEBFC7
:1019A0000FBECDBFCF91DF911F910F910895DF93AF
:1019B000CF93CDB7DEB727970FB6F894DEBF0FBE33
:1019C000CDBF6B837C838D839E834F8360E070E00B
:1019D00080E89FE32B813C814D815E810E94110351
:1019E000DC01CB01BC01CD010E944100DC01CB0137
:1019F0008A838F8194E6692F0E94CB0E982F8A816B
:101A0000989F802D11248983898127960FB6F89499
:101A1000DEBF0FBECDBFCF91DF910895DF93CF938F
:101A200000D00F92CDB7DEB789838981282F30E0AF
:101A30003B832A838A819B81009731F02A813B81F5
:101A40002130310581F01DC0A3E5B0E0E3E5F0E011
:101A5000808180618C93A3E5B0E0E3E5F0E08081D4
:101A600080628C930EC0A3E5B0E0E3E5F0E08081F6
:101A70008F7E8C93A3E5B0E0E3E5F0E080818062A7
:101A80008C930F900F900F90CF91DF910895DF937B
:101A9000CF93CDB7DEB781E063E041E00E9421083B
:101AA000A3E5B0E0E3E5F0E0808180618C93A3E5FD
:101AB000B0E0E3E5F0E080818F7D8C93CF91DF9102
:101AC0000895DF93CF93CDB7DEB70E948B0BA9E5C6
:101AD000B0E0E9E5F0E0808181608C93CF91DF9107
:101AE0000895DF93CF93CDB7DEB70E948B0BA9E5A6
:101AF000B0E0E9E5F0E0808182608C93CF91DF91E6
:101B000008951F93DF93CF93CDB7DEB72E970FB60F
:101B1000F894DEBF0FBECDBF69877A878B879C871D
:101B20004D8760E070E080E89FE329853A854B852A
:101B30005C850E941103DC01CB018D839E83AF8302
:101B4000B8876D817E818F81988520E030E040E20A
:101B500051E40E941702DC01CB0189839A83AB8395
:101B6000BC838D85882F90E0AA2797FDA095BA2F7A
:101B7000BC01CD010E941D04DC01CB01BC01CD01E3
:101B800029813A814B815C810E94BD03882311F435
:101B90001E8618C069817A818B819C810E944100D8
:101BA000DC01CB01182F6D817E818F8198850E9489
:101BB0004100DC01CB01982F8D85612F492F0E94B8
:101BC000ED0D8E878E852E960FB6F894DEBF0FBE74
:101BD000CDBFCF91DF911F910895DF93CF93CDB704
:101BE000DEB72A970FB6F894DEBF0FBECDBF8F8346
:101BF000688749871E821D8280E090E0A0E0B0E007
:101C000089839A83AB83BC839F818885981760F40E
:101C10008F819985692F0E94CB0E8E838E8181954D
:101C20008D838D818A876DC08F819885692F0E94F1
:101C3000CB0E882F90E0AA2797FDA095BA2FBC0164
:101C4000CD010E941D04DC01CB0189839A83AB8303
:101C5000BC8369817A818B819C810E944100DC0177
:101C6000CB01882F90E0AA2797FDA095BA2FBC0141
:101C7000CD010E941D04DC01CB01BC01CD012981F5
:101C80003A814B815C810E94BD03882311F41A863E
:101C900038C069817A818B819C810E944100DC017E
:101CA000CB01882F90E0AA2797FDA095BA2FBC0101
:101CB000CD010E941D049B01AC0169817A818B8159
:101CC0009C810E94B901DC01CB0189839A83AB839B
:101CD000BC8369817A818B819C8120E030E040E87F
:101CE00053E40E941702DC01CB01BC01CD010E942C
:101CF0004100DC01CB018E838E8181958D838D81A6
:101D00008A878A852A960FB6F894DEBF0FBECDBFAC
:101D1000CF91DF910895DF93CF93CDB7DEB7E2E5A2
:101D2000F0E08EEF8083A3E5B0E0E3E5F0E08081B2
:101D3000877F8C93A3E5B0E0E3E5F0E080818F7BC3
:101D40008C93A3E5B0E0E3E5F0E080818E7F8C9397
:101D5000A3E5B0E0E3E5F0E0808182608C93A3E549
:101D6000B0E0E3E5F0E0808184608C9381E061E0A5
:101D700040E00E94210881E061E041E00E942909E1
:101D800081E061E00E94310A8823D1F70E94610D51
:101D9000CF91DF910895991B79E004C0991F9617A0
:101DA00008F0961B881F7A95C9F780950895A1E2DF
:101DB0001A2EAA1BBB1BFD010DC0AA1FBB1FEE1FC5
:101DC000FF1FA217B307E407F50720F0A21BB30B10
:101DD000E40BF50B661F771F881F991F1A9469F78C
:101DE00060957095809590959B01AC01BD01CF01E8
:101DF00008952F923F924F925F926F927F928F92AF
:101E00009F92AF92BF92CF92DF92EF92FF920F9389
:101E10001F93CF93DF93CDB7DEB7CA1BDB0B0FB693
:101E2000F894DEBF0FBECDBF09942A883988488850
:101E30005F846E847D848C849B84AA84B984C884E6
:101E4000DF80EE80FD800C811B81AA81B981CE0FDD
:101E5000D11D0FB6F894DEBF0FBECDBFED010895C2
:041E6000F894FFCF24
:101E6400000000000000000000010202030303035D
:101E74000404040404040404050505050505050516
:101E840005050505050505050606060606060606F6
:101E940006060606060606060606060606060606DE
:101EA40006060606060606060707070707070707C6
:101EB40007070707070707070707070707070707AE
:101EC400070707070707070707070707070707079E
:101ED400070707070707070707070707070707078E
:101EE4000707070707070707080808080808080876
:101EF400080808080808080808080808080808085E
:101F0400080808080808080808080808080808084D
:101F1400080808080808080808080808080808083D
:101F2400080808080808080808080808080808082D
:101F3400080808080808080808080808080808081D
:101F4400080808080808080808080808080808080D
:101F540008080808080808080808080808080808FD
:081F6400080808080808080835
:00000001FF
